:100000000C94B6010C94D3010C94D3010C94D3013D
:100010000C94D3010C94D3010C94D3010C94D30110
:100020000C94D3010C94D3010C94D3010C94D30100
:100030000C94D3010C94A3080C94D3010C94D30119
:100040000C9459080C94D3010C94D3010C94D30153
:100050000C94D3010C94D3010C94D3010C94D301D0
:100060000C94D3010C94D30106082000000000007A
:100070000000004040404040004000505050000010
:10008000000000000050F850F850002070A07028C8
:1000900070200000C8D0205898000020508040A850
:1000A00090680040404000000000001020404040A8
:1000B00020100040201010102040001038100000C8
:1000C000000000002020F8202000000000000000B8
:1000D000101000000000F800000000000000000008
:1000E00010000000081020408000007088A8A88838
:1000F00070000020602020207000007088102040D8
:10010000F80000F810201088700000909090F8100F
:10011000100000F880F008887000007080F0888877
:10012000700000F8081020408000007088708888F7
:1001300070000070888878087000000000200000BF
:100140002000000000200020204000001860806097
:10015000180000000078007800000000C03008306F
:10016000C000006090202000200000708898A890B7
:10017000887000205088F888880000F088F088880F
:10018000F000007088808088700000F0888888887F
:10019000F00000F880F88080F80000F880F080809F
:1001A00080000070888098887000008888F88888AF
:1001B000880000702020202070000038101010905F
:1001C0006000008890E0A09088000080808080809F
:1001D000F8000088D8A8A8888800008888C8A8984F
:1001E0008800007088888888700000F088F080801F
:1001F000800000708888A890680000F088F0A090C7
:100200008800007880700808F00000F82020202086
:100210002000008888888888700000888888885036
:100220002000008888A8A8A8500000885020508886
:100230008800008888502020200000F80810204006
:10024000F80000E080808080E00000008040201006
:100250000800003808080808380000205000000096
:10026000000000000000000000F8008040000000D6
:1002700000000000601070906000008080E09090AE
:10028000E0000000007080807000001010709090FE
:10029000700000006090F0807000003040E040404E
:1002A00040000000609070101060008080E090902E
:1002B000900000200020202070000010003010105E
:1002C0001060008090A0C0A090000060202020203E
:1002D000700000000050A8A8A800000000F0888866
:1002E000880000000060909060000000006090F0C6
:1002F00080800000006090F01010000000B04840C6
:1003000040000000304020106000004040E04040CD
:10031000400000000090909060000000008888502D
:10032000200000000088A8A850000000885020503D
:1003300088000000009090604080000000F02040A5
:10034000F00000204040804040200020202020205D
:10035000202000201010081010200040A8100000DD
:1003600000000000000000000000000011241FBE7B
:10037000CFEFD8E0DEBFCDBF21E0A6E0B1E001C005
:100380001D92A633B207E1F711E0A0E0B1E0ECE284
:10039000FBE102C005900D92A630B107D9F70E948B
:1003A000CA080C94940D0C94000080911E0190E0FA
:1003B00040912A01E0911F01F09120013196549162
:1003C000242F30E0251B310982179307DCF0E491DC
:1003D000809130019091310120912B01DC01E29F4D
:1003E000A00DB11D1124BC01429F600D711D11248F
:1003F0009B01FC012A173B0720F08C9181931D92F1
:10040000F9CF0895E4918E0F911D80931E010895F8
:100410002F923F924F925F926F927F928F929F9214
:10042000AF92BF92CF92DF92EF92FF920F931F9302
:10043000CF93DF93CDB7DEB728970FB6F894DEBF22
:100440000FBECDBFA0911F01B0912001FD013296DA
:1004500054919D012F5F3F4FF9017491FD019491DB
:10046000F9012491451B429FA00111249A012D5F9F
:100470003F4F182F1770E8E0FE2EF11A911106C0B9
:10048000F901EA0FFB1F94912F5F3F4F711106C0D6
:10049000FD01E20FF31F74912F5F3F4F492F47700B
:1004A000E92FE695E695E695442321F0222423944E
:1004B0002E0E02C02E2E48E050902B01612E712C82
:1004C0008301040F111D4FEF50E0002E02C055951F
:1004D00047950A94E2F7CF2CD12CDA82C982DD2429
:1004E000D3942D1002C0842E01C0812CAA24AA947A
:1004F000B12CF50102C0EE0FFF1FFA94E2F78E2A2D
:100500007801F8E0EF1AF10802C0B594A794EA94D4
:10051000E2F7942EC52CD12CDC82CB828695869571
:10052000869590E0AC01659D400D511D11245E83C0
:100530004D83E12CF12CB12C312C51E0251A3108DE
:10054000B71609F493C080911B0190911C01CD80D6
:10055000DE80CE0CDF1CD886CF82F601E80FF91FB3
:100560006081862F88218083A9014F5F5F4FFD0145
:10057000E20FF31F8491E0911B01F0911C01EC0D3F
:10058000FD1DC82ED12C062C02C0D594C7940A9408
:10059000E2F79081C92AC0822101440E551ECF8006
:1005A000D884C21AD30A9A012C0D3D1D38872F8397
:1005B00020911B0130911C0190E04415550530F548
:1005C000EF81F8852E0F3F1FF9016081098001C07E
:1005D000880F0A94EAF78083FD01E40FF51F8491E8
:1005E00020911B0130911C01EF81F885E20FF31F70
:1005F000282F30E0062C02C0359527950A94E2F7A3
:100600009081292B20834F5F5F4FCDCF083011059C
:1006100050F4EF81F8853197E20FF31F69212081B3
:10062000622B60830AC00830110539F0EF81F8852C
:10063000E20FF31F20812A21208320911B0130919A
:100640001C01CF80D8842C0D3D1D098002C0880F6D
:10065000991F0A94E2F7F9019081892B8083B39462
:10066000CB80DC80EC0CFD1C9A016ACF28960FB67B
:10067000F894DEBF0FBECDBFDF91CF911F910F91D8
:10068000FF90EF90DF90CF90BF90AF909F908F90B2
:100690007F906F905F904F903F902F900895CF93F1
:1006A000DF931F92CDB7DEB78A3001F1C8F48823FB
:1006B00009F456C0883021F5E0911F01F091200126
:1006C000E49180911D0190E08E1B910980931D01A2
:1006D00040E260911E010F90DF91CF910C940802CF
:1006E0008D3059F08E3009F43BC00AC010921D01C4
:1006F0000F90DF91CF910C94D50110921D0130C065
:10070000482F80911D0120912B01E0911F01F09154
:100710002001E491682F70E098E0299F9001112456
:100720002E1B3109621773075CF010921D0149837B
:100730000E94D501498160911E0180911D0102C076
:1007400060911E010E940802E0911F01F0912001BA
:10075000E49180911D01F0E0E80FF11DE0931D018F
:100760000F90DF91CF9108950F93CF93DF93E1E244
:10077000F1E0A785B089C0910A01D0910B01828573
:10078000AC0FBD1F0BB10F7703C000FA07F90BB90F
:100790000D90000007FA07F90BB9000000000000F7
:1007A00006FA07F90BB900000000000005FA07F986
:1007B0000BB900000000000004FA07F90BB90000B3
:1007C0000000000003FA07F90BB900000000000068
:1007D00002FA07F90BB900000000000001FA07F95E
:1007E0000BB98A9591F60000000000FA07F90BB9E1
:1007F0000BB10F7707FB07F90BB9DF91CF910F9181
:1008000008950F93CF93DF93E1E2F1E0A785B089DC
:10081000C0910A01D0910B018285AC0FBD1F0BB1B5
:100820000F7703C000FA07F90BB90D9007FA07F923
:100830000BB90000000006FA07F90BB90000000030
:1008400005FA07F90BB90000000004FA07F90BB923
:100850000000000003FA07F90BB90000000002FADB
:1008600007F90BB900008A9501FA07F90BB9D1F61F
:10087000000000FA07F90BB90BB10F7707FB07F976
:100880000BB9DF91CF910F9108950F93CF93DF9321
:10089000E1E2F1E0A785B089C0910A01D0910B0196
:1008A0008285AC0FBD1F02C0000C0BB80D9000007C
:1008B0000BB800000000000C0BB800000000000C9A
:1008C0000BB800000000000C0BB800000000000C8A
:1008D0000BB800000000000C0BB80000000C8A955B
:1008E0000BB811F70000000C0BB80000000000006E
:1008F0005F98DF91CF910F9108950F93CF93DF937E
:10090000E1E2F1E0A785B089C0910A01D0910B0125
:100910008285AC0FBD1F8E3191F08D3151F08C313D
:1009200049F08B3141F08A3139F0893131F0883129
:1009300029F01CC032C048C05EC074C08AC00D908F
:100940000BB80000000C0BB80000000C0BB8000046
:10095000000C0BB80000000C0BB80000000C0BB82A
:100960000000000C0BB80000000C0BB80D900BB889
:100970000000000C0BB80000000C0BB80000000CCD
:100980000BB80000000C0BB80000000C0BB8000006
:10099000000C0BB80000000C0BB80D900BB8000059
:1009A000000C0BB80000000C0BB80000000C0BB8DA
:1009B0000000000C0BB80000000C0BB80000000C8D
:1009C0000BB80000000C0BB80D900BB80000000C29
:1009D0000BB80000000C0BB80000000C0BB80000B6
:1009E000000C0BB80000000C0BB80000000C0BB89A
:1009F0000000000C0BB80D900BB80000000C0BB8F9
:100A00000000000C0BB80000000C0BB80000000C3C
:100A10000BB80000000C0BB80000000C0BB8000075
:100A2000000C0BB80D900BB80000000C0BB80000C8
:100A3000000C0BB80000000C0BB80000000C0BB849
:100A40000000000C0BB80000000C0BB80000000CFC
:100A50000BB80D900BB80000000C0BB80000000C98
:100A60000BB80000000C0BB80000000C0BB8000025
:100A7000000C0BB80000000C0BB80000000C0BB809
:100A80000D900BB80000000C0BB80000000C0BB868
:100A90000000000C0BB80000000C0BB80000000CAC
:100AA0000BB80000000C0BB80000000C0BB80D9048
:100AB0000BB80000000C0BB80000000C0BB80000D5
:100AC000000C0BB80000000C0BB80000000C0BB8B9
:100AD0000000000C0BB80000000C0BB80D900BB818
:100AE0000000000C0BB80000000C0BB80000000C5C
:100AF0000BB80000000C0BB80000000C0BB8000095
:100B0000000C0BB80000000C0BB80D900BB80000E7
:100B1000000C0BB80000000C0BB80000000C0BB868
:100B20000000000C0BB80000000C0BB80000000C1B
:100B30000BB80000000C0BB80D900BB80000000CB7
:100B40000BB80000000C0BB80000000C0BB8000044
:100B5000000C0BB80000000C0BB80000000C0BB828
:100B60000000000C0BB80D900BB80000000C0BB887
:100B70000000000C0BB80000000C0BB80000000CCB
:100B80000BB80000000C0BB80000000C0BB8000004
:100B9000000C0BB80D900BB80000000C0BB8000057
:100BA000000C0BB80000000C0BB80000000C0BB8D8
:100BB0000000000C0BB80000000C0BB80000000C8B
:100BC0000BB80D900BB80000000C0BB80000000C27
:100BD0000BB80000000C0BB80000000C0BB80000B4
:100BE000000C0BB80000000C0BB80000000C0BB898
:100BF0000D900BB80000000C0BB80000000C0BB8F7
:100C00000000000C0BB80000000C0BB80000000C3A
:100C10000BB80000000C0BB80000000C0BB80D90D6
:100C20000BB80000000C0BB80000000C0BB8000063
:100C3000000C0BB80000000C0BB80000000C0BB847
:100C40000000000C0BB80000000C0BB80D900BB8A6
:100C50000000000C0BB80000000C0BB80000000CEA
:100C60000BB80000000C0BB80000000C0BB8000023
:100C7000000C0BB80000000C0BB80D900BB8000076
:100C8000000C0BB80000000C0BB80000000C0BB8F7
:100C90000000000C0BB80000000C0BB80000000CAA
:100CA0000BB80000000C0BB80D900BB80000000C46
:100CB0000BB80000000C0BB80000000C0BB80000D3
:100CC000000C0BB80000000C0BB80000000C0BB8B7
:100CD0000000000C0BB80D900BB80000000C0BB816
:100CE0000000000C0BB80000000C0BB80000000C5A
:100CF0000BB80000000C0BB80000000C0BB8000093
:100D0000000C0BB80D900BB80000000C0BB80000E5
:100D1000000C0BB80000000C0BB80000000C0BB866
:100D20000000000C0BB80000000C0BB80000000C19
:100D30000BB80D900BB80000000C0BB80000000CB5
:100D40000BB80000000C0BB80000000C0BB8000042
:100D5000000C0BB80000000C0BB80000000C0BB826
:100D60000D900BB80000000C0BB80000000C0BB885
:100D70000000000C0BB80000000C0BB80000000CC9
:100D80000BB80000000C0BB80000000C0BB80D9065
:100D90000BB80000000C0BB80000000C0BB80000F2
:100DA000000C0BB80000000C0BB80000000C0BB8D6
:100DB0000000000C0BB80000000C0BB80D900BB835
:100DC0000000000C0BB80000000C0BB80000000C79
:100DD0000BB80000000C0BB80000000C0BB80000B2
:100DE000000C0BB80000000C0BB80D900BB8000005
:100DF000000C0BB80000000C0BB80000000C0BB886
:100E00000000000C0BB80000000C0BB80000000C38
:100E10000BB80000000C0BB80D900BB80000000CD4
:100E20000BB80000000C0BB80000000C0BB8000061
:100E3000000C0BB80000000C0BB80000000C0BB845
:100E40000000000C0BB80D900BB80000000C0BB8A4
:100E50000000000C0BB80000000C0BB80000000CE8
:100E60000BB80000000C0BB80000000C0BB8000021
:100E7000000C0BB80D900BB80000000C0BB8000074
:100E8000000C0BB80000000C0BB80000000C0BB8F5
:100E90000000000C0BB80000000C0BB80000000CA8
:100EA0000BB8000000005F98DF91CF910F9108957B
:100EB00020912101309122018091280190912901F6
:100EC000281739070CF44EC08CEA93E09093890000
:100ED00080938800109222011092210180912301B9
:100EE00090912401A0912501B09126010196A11DA8
:100EF000B11D8093230190932401A0932501B09309
:100F000026018091060190910701A0910801B091FE
:100F10000901892B8A2B8B2B09F180910601909175
:100F20000701A0910801B0910901181619061A06C7
:100F30001B0684F58091060190910701A09108019C
:100F4000B09109010197A109B1098093060190931D
:100F50000701A0930801B09309011CC01092B100D1
:100F60002B9818C0209121013091220180912F01EE
:100F7000082E000C990B2817390761F48AE490E0D9
:100F8000909389008093880084ED97E090930D0101
:100F900080930C0180912101909122010196909300
:100FA0002201809321010895209121013091220195
:100FB0008091270190E02817390759F410920B010E
:100FC00010920A0180912D0180932E0184E098E017
:100FD0000DC0209121013091220180912801909132
:100FE00029012817390731F488E597E090930D011E
:100FF00080930C01809121019091220101969093A0
:1010000022018093210108953091840020912C01C8
:101010002A50231B2350F0F72D5F19F02A9511F069
:1010200001C00000E0910E01F0910F01099590912F
:101030002E0180912D0191110FC080932E0190916E
:101040002B0120910A0130910B01290F311D3093A2
:101050000B0120930A0103C0915090932E014091FF
:101060002101509122014F5F5F4F609127017091E4
:101070002A01082E000C990B0196789F9001799F08
:10108000300D1124C901860F911D4817590731F4FD
:1010900084ED97E090930D0180930C0180912101E4
:1010A000909122010196909322018093210108954D
:1010B00008951F920F920FB60F9211242F933F9312
:1010C0008F939F93AF93BF938091170190911801D5
:1010D000A0911901B0911A013091160123E0230F5C
:1010E0002D3720F40196A11DB11D05C026E8230F60
:1010F0000296A11DB11D20931601809317019093B4
:101100001801A0931901B0931A01809112019091D6
:101110001301A0911401B09115010196A11DB11DFB
:101120008093120190931301A0931401B0931501C1
:10113000BF91AF919F918F913F912F910F900FBED3
:101140000F901F9018951F920F920FB60F921124B7
:101150002F933F934F935F936F937F938F939F93BF
:10116000AF93BF93EF93FF93E0910C01F0910D01CA
:101170000995FF91EF91BF91AF919F918F917F91D1
:101180006F915F914F913F912F910F900FBE0F90F4
:101190001F901895CF93DF93CDB7DEB7A4970FB606
:1011A000F894DEBF0FBECDBF789484B5826084BD55
:1011B00084B5816084BD85B5826085BD85B581605B
:1011C00085BD80916E00816080936E0010928100D9
:1011D0008091810082608093810080918100816094
:1011E0008093810080918000816080938000809155
:1011F000B10084608093B1008091B00081608093E1
:10120000B00080917A00846080937A0080917A00A7
:10121000826080937A0080917A00816080937A0066
:1012200080917A00806880937A001092C10080EAF1
:1012300095E00E94670C90931C0180931B0100971E
:1012400089F488E690E09093200180931F0188EE56
:10125000C82E83E0D82EE12CF12C90E0292E90E0CE
:10126000392EE4C010921D0110921E01909331019D
:10127000809330018FE080932B0180E680932A01D8
:101280001092230110922401109225011092260140
:1012900081E080932D0180932E0124EB33E0309385
:1012A0000F0120930E01579A219A5F98299A239A49
:1012B00092EC9093800099E1909381009CE390934D
:1012C000270197EC90932C0197E090932F0128E34E
:1012D00031E030932901209328012FEF33E0309340
:1012E0008700209386002AE430E030938900209321
:1012F000880029E331E0309322012093210128E581
:1013000037E030930D0120930C0180936F007894A7
:1013100010921D0110921E0190912B0180912A01C3
:10132000E0913001F09131019F01989F200D311D16
:101330001124C901E817F90709F483CF1192FACFF4
:10134000C501B40189288A288B2809F086C080E36A
:101350000E944F038DE00E944F038AE00E944F03DA
:101360000F5F1F4F1093110100931001009128018E
:10137000109129010630E1E01E0709F0AEC060912E
:1013800023017091240180912501909126010E94F2
:101390006C0B23E333E34EE752E40E94FA0B20E0A8
:1013A00030E043E853E40E94FA0B20E030E04AE7E3
:1013B00054E40E94CB0A0E943D0B9B01AC01490101
:1013C0005A01F8EE8F0EF3E09F1EA11CB11C0630EF
:1013D00021E0120709F092C060912301709124016D
:1013E00080912501909126010E946C0B23E333E349
:1013F0004EE752E40E94FA0B20E030E043E853E469
:101400000E94FA0B20E030E04AE754E40E94CB0A45
:101410000E943D0B9B01AC01281539054A055B056F
:10142000B0F22114310411F00E940000009110016B
:10143000109111014801012E000CAA08BB08B7FE4B
:101440007FCF8DE20E944F03B094A094909480943B
:10145000811C911CA11CB11C73CFDE0111965D0192
:10146000412C512C3201BFEF4B1A5B0A6B0A7B0AED
:101470002AE030E040E050E00E948F0AF5016193DD
:101480005F01B901CA01611571058105910559F71F
:101490004201A12CB12CD301C2010197A109B109CC
:1014A00089A39AA3ABA3BCA3E9A1FAA1EA19FB09FA
:1014B000A1E0B0E0AC0FBD1FEA0FFB1F80818A30B6
:1014C00010F4805D01C0895C0E944F03BFEFAB1A2E
:1014D000BB0AA814B90441F73DCF209123013091F4
:1014E00024014091250150912601A0E0BEE40E9414
:1014F000B10AA70196010E948F0A61CF20912301B2
:10150000309124014091250150912601A0E0BEE4D4
:101510000E94B10AA70196010E948F0A7DCFA1E225
:101520001A2EAA1BBB1BFD010DC0AA1FBB1FEE1F5D
:10153000FF1FA217B307E407F50720F0A21BB30BA8
:10154000E40BF50B661F771F881F991F1A9469F724
:1015500060957095809590959B01AC01BD01CF0180
:1015600008950E94BC0AA59F900DB49F900DA49F62
:10157000800D911D11240895A29FB001B39FC00159
:10158000A39F700D811D1124911DB29F700D811DAF
:101590001124911D08950E94DF0A0C94C00B0E9433
:1015A000B90B58F00E94B20B40F029F45F3F29F0CC
:1015B0000C94A90B51110C94F40B0C94AF0B0E94DA
:1015C000D10B68F39923B1F3552391F3951B550B78
:1015D000BB27AA2762177307840738F09F5F5F4F06
:1015E000220F331F441FAA1FA9F335D00E2E3AF045
:1015F000E0E832D091505040E695001CCAF72BD05D
:10160000FE2F29D0660F771F881FBB1F26173707AD
:101610004807AB07B0E809F0BB0B802DBF01FF27DF
:1016200093585F4F3AF09E3F510578F00C94A90B08
:101630000C94F40B5F3FE4F3983ED4F386957795D2
:101640006795B795F7959F5FC9F7880F911D969598
:10165000879597F90895E1E0660F771F881FBB1FF4
:10166000621773078407BA0720F0621B730B840BA1
:10167000BA0BEE1F88F7E09508950E94D90B88F009
:101680009F5798F0B92F9927B751B0F0E1F0660F46
:10169000771F881F991F1AF0BA95C9F714C0B13087
:1016A00091F00E94F30BB1E008950C94F30B672FB7
:1016B000782F8827B85F39F0B93FCCF386957795B6
:1016C0006795B395D9F73EF490958095709561959F
:1016D0007F4F8F4F9F4F0895E89409C097FB3EF4CA
:1016E00090958095709561957F4F8F4F9F4F99236F
:1016F000A9F0F92F96E9BB279395F69587957795ED
:101700006795B795F111F8CFFAF4BB0F11F460FFAC
:101710001BC06F5F7F4F8F4F9F4F16C0882311F004
:1017200096E911C0772321F09EE8872F762F05C018
:10173000662371F096E8862F70E060E02AF09A95B3
:10174000660F771F881FDAF7880F9695879597F9A8
:10175000089597F99F6780E870E060E008959FEF33
:1017600080EC089500240A94161617061806090638
:10177000089500240A941216130614060506089507
:10178000092E0394000C11F4882352F0BB0F40F48F
:10179000BF2B11F460FF04C06F5F7F4F8F4F9F4FCF
:1017A000089557FD9058440F551F59F05F3F71F051
:1017B0004795880F97FB991F61F09F3F79F08795B8
:1017C0000895121613061406551FF2CF4695F1DF41
:1017D00008C0161617061806991FF1CF86957105D1
:1017E000610508940895E894BB2766277727CB0105
:1017F00097F908950E940D0C0C94C00B0E94B20B37
:1018000038F00E94B90B20F0952311F00C94A90B2D
:101810000C94AF0B11240C94F40B0E94D10B70F3B9
:10182000959FC1F3950F50E0551F629FF001729F85
:10183000BB27F00DB11D639FAA27F00DB11DAA1F94
:10184000649F6627B00DA11D661F829F2227B00DE1
:10185000A11D621F739FB00DA11D621F839FA00D6C
:10186000611D221F749F3327A00D611D231F849FBC
:10187000600D211D822F762F6A2F11249F57504013
:101880009AF0F1F088234AF0EE0FFF1FBB1F661F8E
:10189000771F881F91505040A9F79E3F510580F057
:1018A0000C94A90B0C94F40B5F3FE4F3983ED4F333
:1018B000869577956795B795F795E7959F5FC1F7FB
:1018C000FE2B880F911D9695879597F90895CF93D4
:1018D000DF938230910510F482E090E0E0913401D2
:1018E000F091350120E030E0C0E0D0E0309711F118
:1018F0004081518148175907C0F04817590761F4D2
:1019000082819381209719F09B838A832BC09093C7
:1019100035018093340126C02115310519F0421795
:10192000530718F49A01BE01DF01EF010280F38131
:10193000E02DDCCF2115310509F1281B390B2430AE
:10194000310590F412968D919C9113976115710554
:1019500021F0FB019383828304C09093350180932F
:101960003401FD01329644C0FD01E20FF31F819363
:101970009193225031092D933C933AC0209132012A
:1019800030913301232B41F4209102013091030166
:1019900030933301209332012091000130910101F5
:1019A0002115310541F42DB73EB740910401509106
:1019B0000501241B350BE0913201F0913301E21750
:1019C000F307A0F42E1B3F0B2817390778F0AC0162
:1019D0004E5F5F4F2417350748F04E0F5F1F50933F
:1019E0003301409332018193919302C0E0E0F0E033
:1019F000CF01DF91CF9108950F931F93CF93DF9382
:101A0000009709F48CC0FC01329713821282009176
:101A10003401109135010115110581F420813181C6
:101A2000820F931F2091320130913301281739071B
:101A300079F5F0933301E093320171C0D80140E0B1
:101A400050E0AE17BF0750F412962D913C911397BA
:101A5000AD012115310509F1D901F3CF9D01DA015D
:101A60003383228360817181860F971F82179307CA
:101A700069F4EC0128813981260F371F2E5F3F4F13
:101A8000318320838A819B8193838283452B29F430
:101A9000F0933501E093340142C01396FC93EE932A
:101AA0001297ED01499159919E01240F351FE217BC
:101AB000F30771F480819181840F951F029611962E
:101AC0009C938E938281938113969C938E9312970D
:101AD000E0E0F0E0D80112968D919C911397009769
:101AE00019F0F8018C01F6CF8D919C9198012E5F31
:101AF0003F4F820F931F20913201309133012817FD
:101B0000390769F4309729F41092350110923401A5
:101B100002C0138212821093330100933201DF91CD
:0C1B2000CF911F910F910895F894FFCF12
:061B2C00000036018000FC
:00000001FF
