:100000000C945D000C9485000C9485000C94850084
:100010000C9485000C9485000C9485000C9485004C
:100020000C9485000C9485000C9485000C941D02A2
:100030000C9485000C9485000C9485000C9485002C
:100040000C94D3010C9485000C9485000C948500CD
:100050000C9485000C9485000C9485000C9485000C
:100060000C9485000C94850000000008000201003B
:100070000003040700000000000000000000000072
:10008000250028002B0000000000240027002A0083
:10009000040404040404040402020202020203032E
:1000A0000303030301020408102040800102040836
:1000B0001020010204081020A30311241FBECFEF5B
:1000C000D4E0DEBFCDBF21E0A4E0B1E001C01D92CD
:1000D000A633B207E1F711E0A0E0B1E0ECE6F8E00A
:1000E00002C005900D92A430B107D9F710E0CDE51C
:1000F000D0E004C02197FE010E94CB03CC35D1078C
:10010000C9F70E94DE020C9434040C940000CF92D4
:10011000DF92EF92FF92DC01A03282E0B8070CF090
:100120003EC0B7FD06C0A53BB1052CF0A4EBB0E086
:1001300002C0A0E0B0E08091340128E830E069011D
:10014000C81AD10887FDD394CC0CDD1CCC0CDD1C67
:100150000D2C000CEE08FF088091350128E532E0F7
:10016000281B310987FD3395220F331F220F331FC0
:10017000A901330F660B770B9A01AB012C193D09CE
:100180004E095F090E94FB0324EB30E040E050E0A1
:100190000E94D103C20ED31EE41EF51ED60190911B
:1001A00033019C3088F58091340148E850E0481BC9
:1001B000510987FD5395440F551F440F551FA41730
:1001C000B5078CF08091350128E532E0281B310914
:1001D00087FD3395220F331F220F331FAD012A17DE
:1001E0003B070CF4A9012FB7F894892F90E04250F7
:1001F0005109FC01EE0FFF1F8E0F9F1FFC01E15FF5
:10020000FE4F528341832FBFFF90EF90DF90CF903E
:10021000089590E0FC01EC55FF4F2491FC01E0575C
:10022000FF4F8491882399F090E0880F991FFC017B
:10023000EA57FF4FA591B491FC01E458FF4F859117
:1002400094918FB7F894EC91E22BEC938FBF0895C3
:1002500090E0FC01E859FF4F3491FC01EC55FF4F51
:100260002491FC01E057FF4FE491EE2309F43BC0D9
:10027000332339F1333091F038F43130A9F0323092
:1002800001F584B58F7D12C0373091F03830A1F080
:100290003430B9F4809180008F7D03C0809180005C
:1002A0008F77809380000DC084B58F7784BD09C09F
:1002B0008091B0008F7703C08091B0008F7D8093D4
:1002C000B000F0E0EE0FFF1FE458FF4FA591B4918E
:1002D0008FB7F894EC91611103C020952E2301C0D3
:1002E0002E2B2C938FBF08953FB7F89480910B016C
:1002F00090910C01A0910D01B0910E0126B5A89B23
:1003000005C02F3F19F00196A11DB11D3FBFBA2FA7
:10031000A92F982F8827820F911DA11DB11DBC0107
:10032000CD0143E0660F771F881F991F4A95D1F7CB
:1003300008958F929F92AF92BF92CF92DF92EF92E9
:10034000FF926B017C010E9474014B015C01C1149E
:10035000D104E104F104F1F00E947401DC01CB014D
:1003600088199909AA09BB09883E9340A105B105DE
:1003700070F321E0C21AD108E108F10888EE880E76
:1003800083E0981EA11CB11CC114D104E104F10446
:1003900019F7DDCFFF90EF90DF90CF90BF90AF9037
:1003A0009F908F9008951F920F920FB60F92112475
:1003B0002F933F938F939F93AF93BF9380910701A8
:1003C00090910801A0910901B0910A0130910601B4
:1003D00026E0230F2D3720F40296A11DB11D05C084
:1003E00029E8230F0396A11DB11D209306018093D8
:1003F000070190930801A0930901B0930A0180912D
:100400000B0190910C01A0910D01B0910E0101968C
:10041000A11DB11D80930B0190930C01A0930D01C0
:10042000B0930E01BF91AF919F918F913F912F910A
:100430000F900FBE0F901F9018951F920F920FB63E
:100440000F9211242F933F934F935F936F937F935A
:100450008F939F93AF93BF93EF93FF938091050189
:1004600087FF05C010928500109284001BC0209168
:100470000501022E000C330B8091040190E0281737
:10048000390784F480910501082E000C990BFC01BA
:10049000EE0FFF1F8E0F9F1FFC01E15FFE4F80815B
:1004A00086FD15C0809105018F5F80930501209125
:1004B0000501022E000C330B8091040190E02817F7
:1004C0003907C4F4809105018C3064F113C0809128
:1004D0000501082E000C990BFC01EE0FFF1F8E0F7B
:1004E0009F1FFC01E15FFE4F808160E08F730E94DF
:1004F0002801D8CF809184009091850004968032A5
:100500009E4418F480E29EE405C08091840090919E
:100510008500049690938900809388008FEF8093E4
:1005200005013BC020918400309185008091050138
:10053000082E000C990BFC01EE0FFF1F8E0F9F1F62
:10054000FC01E15FFE4F81819281820F931F9093A6
:1005500089008093880080910501082E000C990B7A
:10056000FC01EE0FFF1F8E0F9F1FFC01E15FFE4F8E
:10057000808186FF12C080910501082E000C990B26
:10058000FC01EE0FFF1F8E0F9F1FFC01E15FFE4F6E
:10059000808161E08F730E942801FF91EF91BF91EC
:1005A000AF919F918F917F916F915F914F913F910B
:1005B0002F910F900FBE0F901F901895789484B5CF
:1005C000826084BD84B5816084BD85B5826085BD4F
:1005D00085B5816085BD80916E00816080936E00DD
:1005E00010928100809181008260809381008091CF
:1005F0008100816080938100809180008160809380
:1006000080008091B10084608093B1008091B0003F
:1006100081608093B00080917A00846080937A003A
:1006200080917A00826080937A0080917A008E7F38
:1006300080937A0080917A00806880937A0010928B
:10064000C10080E00E9409018AE00E9409018091B6
:1006500033018C3008F050C08AE00E94090180917B
:100660003301E82FF0E09F01220F331FE20FF31F49
:10067000E15FFE4F9081907C9A60908310923401EC
:10068000109235016CE00E94BF039CE0899FB0018D
:10069000112440E050E09A01260F371FF901EE0FB8
:1006A000FF1F2E0F3F1FF901E15FFE4F908196FD66
:1006B00016C04F5F5F4F4C30510569F781110FC075
:1006C0001092800082E08093810010928500109249
:1006D0008400B19A80916F00826080936F00E091F6
:1006E0003301F0E0CF01880F991FE80FF91FE15F98
:1006F000FE4F80818064808360E089E00E94280151
:1007000080E090E00E94870060E574E383E090E081
:100710000E94990184EB90E00E94870060EA76E8ED
:1007200081E090E00E94990180E090E00E948700C3
:10073000C0E0D0E061E089E00E9428012097D1F379
:100740000E940000F7CF809104018C30A0F491E06A
:10075000980F909304018093330190E0FC01EE0F19
:10076000FF1F8E0F9F1FFC01E15FFE4F8CED95E098
:100770009283818308958FEF809333010895991BAD
:1007800079E004C0991F961708F0961B881F7A9588
:10079000C9F780950895EE0FFF1F0590F491E02DA5
:1007A0000994052E97FB1EF400940E94E80357FD60
:1007B00007D00E94030407FC03D04EF40C94E80316
:1007C00050954095309521953F4F4F4F5F4F08957D
:1007D00090958095709561957F4F8F4F9F4F0895AD
:1007E0000E942504A59F900DB49F900DA49F800D9D
:1007F000911D11240895B7FF0C94F0030E94F0039B
:10080000821B930B0895A1E21A2EAA1BBB1BFD01AC
:100810000DC0AA1FBB1FEE1FFF1FA217B307E407DF
:10082000F50720F0A21BB30BE40BF50B661F771F37
:10083000881F991F1A9469F7609570958095909517
:100840009B01AC01BD01CF010895A29FB001B39FF0
:10085000C001A39F700D811D1124911DB29F700DC9
:0C086000811D1124911D0895F894FFCF14
:04086C000100000087
:103800000C94341C0C94511C0C94511C0C94511CA1
:103810000C94511C0C94511C0C94511C0C94511C74
:103820000C94511C0C94511C0C94511C0C94511C64
:103830000C94511C0C94511C0C94511C0C94511C54
:103840000C94511C0C94511C0C94511C0C94511C44
:103850000C94511C0C94511C0C94511C0C94511C34
:103860000C94511C0C94511C11241FBECFEFD4E0BA
:10387000DEBFCDBF11E0A0E0B1E0EEEAFFE302C0A1
:1038800005900D92A230B107D9F712E0A2E0B1E0A5
:1038900001C01D92AD30B107E1F70E94331D0C94B9
:1038A000D51F0C94001C982F9595959595959595F9
:1038B000905D8F708A307CF0282F295A8091C0004B
:1038C00085FFFCCF9093C6008091C00085FFFCCFA0
:1038D0002093C6000895282F205DF0CF982F809167
:1038E000C00085FFFCCF9093C6000895EF92FF9231
:1038F0000F931F93EE24FF2487018091C00087FD62
:1039000017C00894E11CF11C011D111D81E2E8168D
:1039100081EAF80687E0080780E0180770F3E09175
:103920000401F091050109958091C00087FFE9CF5E
:103930008091C6001F910F91FF90EF9008950E9413
:10394000761C982F8091C00085FFFCCF9093C60015
:1039500091362CF490330CF09053892F089597559D
:10396000892F08951F930E949F1C182F0E949F1C4F
:103970001295107F810F1F9108951F93182F882390
:1039800021F00E94761C1150E1F71F9108951F93BA
:10399000182F0E94761C803249F0809103018F5FBE
:1039A000809303018530C1F01F9108958091C0007C
:1039B00085FFFCCF84E18093C6008091C00085FF25
:1039C000FCCF1093C6008091C00085FFFCCF80E142
:1039D0008093C6001F910895E0910401F0910501C4
:1039E00009951F9108950E94761C803241F08091C4
:1039F00003018F5F80930301853081F008958091EA
:103A0000C00085FFFCCF84E18093C6008091C00098
:103A100085FFFCCF80E18093C6000895E09104010A
:103A2000F09105010995089510920A028823D1F0BA
:103A300090E048EC50E02D9A28EE33E0FA013197FF
:103A4000F1F721503040D1F72D9828EE33E0FA01FC
:103A50003197F1F721503040D1F79F5F981758F315
:103A600080930A0208953F924F925F926F927F92E5
:103A70008F929F92AF92BF92CF92DF92EF92FF927E
:103A80000F931F93CF93DF9394B714BE8091600080
:103A90008861809360001092600091FF0CC289E100
:103AA0008093C4001092C50088E18093C10086E035
:103AB0008093C2005098589A259A81E00E94141D64
:103AC00044E1F42E3EE1E32E24E9D22E96E0C92E05
:103AD00080E1B82EAA24A39401E4902E16E5812E4D
:103AE000B2E57B2EA0E26A2EF9E45F2EE3E54E2ECE
:103AF00070E5372E0E94761C8033B9F18133C1F115
:103B0000803409F470C0813409F477C0823409F438
:103B100086C0853409F489C0803539F1823529F1B0
:103B2000813509F4AFC1853509F485C0863509F4BE
:103B30008DC0843609F435C1843709F4C1C0853796
:103B400009F490C0863709F466C0809103018F5F45
:103B500080930301853071F6E0910401F091050135
:103B600009950E94761C803349F60E94F31CC2CF4F
:103B70000E94761C803249F78091C00085FFFCCFFF
:103B8000F092C6008091C00085FFFCCF9092C600E5
:103B90008091C00085FFFCCF8092C6008091C0005C
:103BA00085FFFCCF7092C6008091C00085FFFCCFDE
:103BB0006092C6008091C00085FFFCCF5092C60085
:103BC0008091C00085FFFCCF4092C6008091C0006C
:103BD00085FFFCCF3092C6008091C00085FFFCCFEE
:103BE000B092C60087CF0E94761C863808F4BDCFFD
:103BF0000E94761C0E94F31C7DCF0E94761C8038A8
:103C000009F45AC0813809F453C0823809F440C11C
:103C1000883909F449C080E00E94C71C6BCF84E159
:103C20000E94BD1C0E94F31C65CF85E00E94BD1C54
:103C30000E94F31C5FCF0E94761C809306010E94B5
:103C4000761C809307010E94F31C54CF0E94761CBF
:103C5000803309F421C183E00E94BD1C80E00E94F2
:103C6000C71C48CF0E94761C803209F06ECF80912D
:103C7000C00085FFFCCFF092C6008091C00085FF98
:103C8000FCCFE092C6008091C00085FFFCCFD092AF
:103C9000C6008091C00085FFFCCFC092C600809115
:103CA000C00085FFFCCF9CCF83E00E94C71C22CFC1
:103CB00081E00E94C71C1ECF82E00E94C71C1ACF61
:103CC0000E94761C809309020E94761C8093080251
:103CD0008091060190910701880F991F9093070129
:103CE000809306010E94761C853409F4C5C080913A
:103CF0000C028E7F80930C020E94761C803209F0A9
:103D0000F9CE8091C00085FFFCCFF092C600609193
:103D10000802709109026115710591F140E050E0CF
:103D200080910C02A82FA170B82FB27010C0BB23D5
:103D300061F1E0910601F09107013196F0930701DE
:103D4000E09306014F5F5F4F46175707C8F4AA2359
:103D500071F3F999FECF209106013091070132BD30
:103D600021BDF89A90B58091C00085FFFCCF90935B
:103D7000C6002F5F3F4F3093070120930601E2CF2B
:103D80008091C00085FFFCCF2BCFE0910601F09120
:103D9000070194918091C00085FFFCCF9093C600ED
:103DA000CCCF0E94761C809309020E94761C8093DF
:103DB000080280910C028E7F80930C020E94761C78
:103DC000853429F480910C02816080930C028091EB
:103DD000080290910902892B89F000E010E00E940E
:103DE000761CF801E85FFE4F80830F5F1F4F8091C4
:103DF0000802909109020817190788F30E94761C9F
:103E0000803209F0A2CE80910C0280FF62C0409106
:103E1000060150910701440F551F5093070140932D
:103E20000601609108027091090261157105C9F0DF
:103E3000E8E0F1E09A01DB01AE0FBF1FF999FECF78
:103E400032BD21BD819180BDFA9AF99A2F5F3F4F13
:103E5000EA17FB0799F7460F571F50930701409346
:103E600006018091C00085FFFCCFF092C6008091D2
:103E7000C00085FFFCCFB4CE80910C02816080939E
:103E80000C023ACF0E94F31C88E080936000FFCFC1
:103E900080E10E94C71C2ECE0E94761C0E94761CD8
:103EA000182F0E94761C112381F0113051F086E00A
:103EB0000E94C71C1FCEE0910401F09105010995F5
:103EC000EECD84E90E94C71C15CE8EE10E94C71C6E
:103ED00011CE809107018823880F880B8A21809357
:103EE0000B028091060190910701880F991F909312
:103EF0000701809306018091080280FF09C080912C
:103F00000802909109020196909309028093080299
:103F1000F894F999FECF1127E0910601F09107017D
:103F2000C8E0D1E08091080290910902103091F42C
:103F30000091570001700130D9F303E0009357005E
:103F4000E8950091570001700130D9F301E1009329
:103F50005700E895099019900091570001700130C1
:103F6000D9F301E000935700E8951395103498F0C9
:103F700011270091570001700130D9F305E000933B
:103F80005700E8950091570001700130D9F301E125
:103F900000935700E8953296029709F0C7CF10308A
:0E3FA00011F00296E5CF11245CCFF894FFCF0C
:023FAE00800091
:0400000300003800C1
:00000001FF
